{
  "_format": "hh-sol-artifact-1",
  "contractName": "TicketSale",
  "sourceName": "contracts/TicketSale.sol",
  "abi": [
    {
      "inputs": [],
      "stateMutability": "nonpayable",
      "type": "constructor"
    },
    {
      "inputs": [
        {
          "internalType": "address",
          "name": "sender",
          "type": "address"
        },
        {
          "internalType": "uint256",
          "name": "balance",
          "type": "uint256"
        },
        {
          "internalType": "uint256",
          "name": "needed",
          "type": "uint256"
        },
        {
          "internalType": "uint256",
          "name": "tokenId",
          "type": "uint256"
        }
      ],
      "name": "ERC1155InsufficientBalance",
      "type": "error"
    },
    {
      "inputs": [
        {
          "internalType": "address",
          "name": "approver",
          "type": "address"
        }
      ],
      "name": "ERC1155InvalidApprover",
      "type": "error"
    },
    {
      "inputs": [
        {
          "internalType": "uint256",
          "name": "idsLength",
          "type": "uint256"
        },
        {
          "internalType": "uint256",
          "name": "valuesLength",
          "type": "uint256"
        }
      ],
      "name": "ERC1155InvalidArrayLength",
      "type": "error"
    },
    {
      "inputs": [
        {
          "internalType": "address",
          "name": "operator",
          "type": "address"
        }
      ],
      "name": "ERC1155InvalidOperator",
      "type": "error"
    },
    {
      "inputs": [
        {
          "internalType": "address",
          "name": "receiver",
          "type": "address"
        }
      ],
      "name": "ERC1155InvalidReceiver",
      "type": "error"
    },
    {
      "inputs": [
        {
          "internalType": "address",
          "name": "sender",
          "type": "address"
        }
      ],
      "name": "ERC1155InvalidSender",
      "type": "error"
    },
    {
      "inputs": [
        {
          "internalType": "address",
          "name": "operator",
          "type": "address"
        },
        {
          "internalType": "address",
          "name": "owner",
          "type": "address"
        }
      ],
      "name": "ERC1155MissingApprovalForAll",
      "type": "error"
    },
    {
      "inputs": [
        {
          "internalType": "address",
          "name": "owner",
          "type": "address"
        }
      ],
      "name": "OwnableInvalidOwner",
      "type": "error"
    },
    {
      "inputs": [
        {
          "internalType": "address",
          "name": "account",
          "type": "address"
        }
      ],
      "name": "OwnableUnauthorizedAccount",
      "type": "error"
    },
    {
      "anonymous": false,
      "inputs": [
        {
          "indexed": true,
          "internalType": "address",
          "name": "account",
          "type": "address"
        },
        {
          "indexed": true,
          "internalType": "address",
          "name": "operator",
          "type": "address"
        },
        {
          "indexed": false,
          "internalType": "bool",
          "name": "approved",
          "type": "bool"
        }
      ],
      "name": "ApprovalForAll",
      "type": "event"
    },
    {
      "anonymous": false,
      "inputs": [
        {
          "indexed": true,
          "internalType": "address",
          "name": "previousOwner",
          "type": "address"
        },
        {
          "indexed": true,
          "internalType": "address",
          "name": "newOwner",
          "type": "address"
        }
      ],
      "name": "OwnershipTransferred",
      "type": "event"
    },
    {
      "anonymous": false,
      "inputs": [
        {
          "indexed": true,
          "internalType": "uint256",
          "name": "ticketId",
          "type": "uint256"
        },
        {
          "indexed": false,
          "internalType": "address",
          "name": "buyer",
          "type": "address"
        },
        {
          "indexed": false,
          "internalType": "uint256",
          "name": "price",
          "type": "uint256"
        }
      ],
      "name": "TicketBought",
      "type": "event"
    },
    {
      "anonymous": false,
      "inputs": [
        {
          "indexed": true,
          "internalType": "uint256",
          "name": "ticketId",
          "type": "uint256"
        },
        {
          "indexed": false,
          "internalType": "string",
          "name": "eventName",
          "type": "string"
        },
        {
          "indexed": false,
          "internalType": "string",
          "name": "ticketImageUrl",
          "type": "string"
        }
      ],
      "name": "TicketCreated",
      "type": "event"
    },
    {
      "anonymous": false,
      "inputs": [
        {
          "indexed": true,
          "internalType": "uint256",
          "name": "ticketId",
          "type": "uint256"
        },
        {
          "indexed": false,
          "internalType": "address",
          "name": "owner",
          "type": "address"
        }
      ],
      "name": "TicketDownloaded",
      "type": "event"
    },
    {
      "anonymous": false,
      "inputs": [
        {
          "indexed": true,
          "internalType": "address",
          "name": "operator",
          "type": "address"
        },
        {
          "indexed": true,
          "internalType": "address",
          "name": "from",
          "type": "address"
        },
        {
          "indexed": true,
          "internalType": "address",
          "name": "to",
          "type": "address"
        },
        {
          "indexed": false,
          "internalType": "uint256[]",
          "name": "ids",
          "type": "uint256[]"
        },
        {
          "indexed": false,
          "internalType": "uint256[]",
          "name": "values",
          "type": "uint256[]"
        }
      ],
      "name": "TransferBatch",
      "type": "event"
    },
    {
      "anonymous": false,
      "inputs": [
        {
          "indexed": true,
          "internalType": "address",
          "name": "operator",
          "type": "address"
        },
        {
          "indexed": true,
          "internalType": "address",
          "name": "from",
          "type": "address"
        },
        {
          "indexed": true,
          "internalType": "address",
          "name": "to",
          "type": "address"
        },
        {
          "indexed": false,
          "internalType": "uint256",
          "name": "id",
          "type": "uint256"
        },
        {
          "indexed": false,
          "internalType": "uint256",
          "name": "value",
          "type": "uint256"
        }
      ],
      "name": "TransferSingle",
      "type": "event"
    },
    {
      "anonymous": false,
      "inputs": [
        {
          "indexed": false,
          "internalType": "string",
          "name": "value",
          "type": "string"
        },
        {
          "indexed": true,
          "internalType": "uint256",
          "name": "id",
          "type": "uint256"
        }
      ],
      "name": "URI",
      "type": "event"
    },
    {
      "inputs": [],
      "name": "admin",
      "outputs": [
        {
          "internalType": "address payable",
          "name": "",
          "type": "address"
        }
      ],
      "stateMutability": "view",
      "type": "function"
    },
    {
      "inputs": [
        {
          "internalType": "address",
          "name": "account",
          "type": "address"
        },
        {
          "internalType": "uint256",
          "name": "id",
          "type": "uint256"
        }
      ],
      "name": "balanceOf",
      "outputs": [
        {
          "internalType": "uint256",
          "name": "",
          "type": "uint256"
        }
      ],
      "stateMutability": "view",
      "type": "function"
    },
    {
      "inputs": [
        {
          "internalType": "address[]",
          "name": "accounts",
          "type": "address[]"
        },
        {
          "internalType": "uint256[]",
          "name": "ids",
          "type": "uint256[]"
        }
      ],
      "name": "balanceOfBatch",
      "outputs": [
        {
          "internalType": "uint256[]",
          "name": "",
          "type": "uint256[]"
        }
      ],
      "stateMutability": "view",
      "type": "function"
    },
    {
      "inputs": [
        {
          "internalType": "uint256",
          "name": "_ticketId",
          "type": "uint256"
        }
      ],
      "name": "buyTicket",
      "outputs": [],
      "stateMutability": "payable",
      "type": "function"
    },
    {
      "inputs": [
        {
          "internalType": "string",
          "name": "_eventName",
          "type": "string"
        },
        {
          "internalType": "string",
          "name": "_eventOrganizer",
          "type": "string"
        },
        {
          "internalType": "string",
          "name": "_posterCid",
          "type": "string"
        },
        {
          "internalType": "string",
          "name": "_ticketImageUrl",
          "type": "string"
        },
        {
          "internalType": "uint128",
          "name": "_price",
          "type": "uint128"
        },
        {
          "internalType": "uint64",
          "name": "_expiryTimestamp",
          "type": "uint64"
        },
        {
          "internalType": "uint64",
          "name": "_eventDate",
          "type": "uint64"
        },
        {
          "internalType": "uint256",
          "name": "_barcode",
          "type": "uint256"
        }
      ],
      "name": "createTicket",
      "outputs": [],
      "stateMutability": "payable",
      "type": "function"
    },
    {
      "inputs": [
        {
          "internalType": "uint256",
          "name": "",
          "type": "uint256"
        }
      ],
      "name": "escrowBalances",
      "outputs": [
        {
          "internalType": "uint256",
          "name": "",
          "type": "uint256"
        }
      ],
      "stateMutability": "view",
      "type": "function"
    },
    {
      "inputs": [
        {
          "internalType": "uint256",
          "name": "ticketId",
          "type": "uint256"
        }
      ],
      "name": "getTicket",
      "outputs": [
        {
          "internalType": "string",
          "name": "eventName",
          "type": "string"
        },
        {
          "internalType": "string",
          "name": "eventOrganizer",
          "type": "string"
        },
        {
          "internalType": "string",
          "name": "posterCid",
          "type": "string"
        },
        {
          "internalType": "string",
          "name": "ticketImageUrl",
          "type": "string"
        },
        {
          "internalType": "uint256",
          "name": "price",
          "type": "uint256"
        },
        {
          "internalType": "uint64",
          "name": "expiryTimestamp",
          "type": "uint64"
        },
        {
          "internalType": "bool",
          "name": "sold",
          "type": "bool"
        },
        {
          "internalType": "bool",
          "name": "downloaded",
          "type": "bool"
        }
      ],
      "stateMutability": "view",
      "type": "function"
    },
    {
      "inputs": [],
      "name": "getTicketCount",
      "outputs": [
        {
          "internalType": "uint256",
          "name": "",
          "type": "uint256"
        }
      ],
      "stateMutability": "view",
      "type": "function"
    },
    {
      "inputs": [
        {
          "internalType": "address",
          "name": "account",
          "type": "address"
        },
        {
          "internalType": "address",
          "name": "operator",
          "type": "address"
        }
      ],
      "name": "isApprovedForAll",
      "outputs": [
        {
          "internalType": "bool",
          "name": "",
          "type": "bool"
        }
      ],
      "stateMutability": "view",
      "type": "function"
    },
    {
      "inputs": [
        {
          "internalType": "uint256",
          "name": "_ticketId",
          "type": "uint256"
        }
      ],
      "name": "markAsDownloaded",
      "outputs": [],
      "stateMutability": "nonpayable",
      "type": "function"
    },
    {
      "inputs": [],
      "name": "owner",
      "outputs": [
        {
          "internalType": "address",
          "name": "",
          "type": "address"
        }
      ],
      "stateMutability": "view",
      "type": "function"
    },
    {
      "inputs": [],
      "name": "renounceOwnership",
      "outputs": [],
      "stateMutability": "nonpayable",
      "type": "function"
    },
    {
      "inputs": [
        {
          "internalType": "address",
          "name": "from",
          "type": "address"
        },
        {
          "internalType": "address",
          "name": "to",
          "type": "address"
        },
        {
          "internalType": "uint256[]",
          "name": "ids",
          "type": "uint256[]"
        },
        {
          "internalType": "uint256[]",
          "name": "values",
          "type": "uint256[]"
        },
        {
          "internalType": "bytes",
          "name": "data",
          "type": "bytes"
        }
      ],
      "name": "safeBatchTransferFrom",
      "outputs": [],
      "stateMutability": "nonpayable",
      "type": "function"
    },
    {
      "inputs": [
        {
          "internalType": "address",
          "name": "from",
          "type": "address"
        },
        {
          "internalType": "address",
          "name": "to",
          "type": "address"
        },
        {
          "internalType": "uint256",
          "name": "id",
          "type": "uint256"
        },
        {
          "internalType": "uint256",
          "name": "value",
          "type": "uint256"
        },
        {
          "internalType": "bytes",
          "name": "data",
          "type": "bytes"
        }
      ],
      "name": "safeTransferFrom",
      "outputs": [],
      "stateMutability": "nonpayable",
      "type": "function"
    },
    {
      "inputs": [
        {
          "internalType": "address",
          "name": "operator",
          "type": "address"
        },
        {
          "internalType": "bool",
          "name": "approved",
          "type": "bool"
        }
      ],
      "name": "setApprovalForAll",
      "outputs": [],
      "stateMutability": "nonpayable",
      "type": "function"
    },
    {
      "inputs": [
        {
          "internalType": "bytes4",
          "name": "interfaceId",
          "type": "bytes4"
        }
      ],
      "name": "supportsInterface",
      "outputs": [
        {
          "internalType": "bool",
          "name": "",
          "type": "bool"
        }
      ],
      "stateMutability": "view",
      "type": "function"
    },
    {
      "inputs": [],
      "name": "ticketCount",
      "outputs": [
        {
          "internalType": "uint256",
          "name": "",
          "type": "uint256"
        }
      ],
      "stateMutability": "view",
      "type": "function"
    },
    {
      "inputs": [],
      "name": "ticketCreationFee",
      "outputs": [
        {
          "internalType": "uint256",
          "name": "",
          "type": "uint256"
        }
      ],
      "stateMutability": "view",
      "type": "function"
    },
    {
      "inputs": [
        {
          "internalType": "uint256",
          "name": "",
          "type": "uint256"
        }
      ],
      "name": "ticketOwners",
      "outputs": [
        {
          "internalType": "address",
          "name": "",
          "type": "address"
        }
      ],
      "stateMutability": "view",
      "type": "function"
    },
    {
      "inputs": [
        {
          "internalType": "uint256",
          "name": "",
          "type": "uint256"
        }
      ],
      "name": "tickets",
      "outputs": [
        {
          "internalType": "string",
          "name": "eventName",
          "type": "string"
        },
        {
          "internalType": "string",
          "name": "eventOrganizer",
          "type": "string"
        },
        {
          "internalType": "string",
          "name": "posterCid",
          "type": "string"
        },
        {
          "internalType": "string",
          "name": "ticketImageUrl",
          "type": "string"
        },
        {
          "internalType": "uint128",
          "name": "price",
          "type": "uint128"
        },
        {
          "internalType": "uint64",
          "name": "expiryTimestamp",
          "type": "uint64"
        },
        {
          "internalType": "uint64",
          "name": "eventDate",
          "type": "uint64"
        },
        {
          "internalType": "uint256",
          "name": "barcode",
          "type": "uint256"
        },
        {
          "internalType": "address",
          "name": "seller",
          "type": "address"
        },
        {
          "internalType": "bool",
          "name": "sold",
          "type": "bool"
        },
        {
          "internalType": "bool",
          "name": "downloaded",
          "type": "bool"
        }
      ],
      "stateMutability": "view",
      "type": "function"
    },
    {
      "inputs": [
        {
          "internalType": "address",
          "name": "newOwner",
          "type": "address"
        }
      ],
      "name": "transferOwnership",
      "outputs": [],
      "stateMutability": "nonpayable",
      "type": "function"
    },
    {
      "inputs": [
        {
          "internalType": "uint256",
          "name": "",
          "type": "uint256"
        }
      ],
      "name": "uri",
      "outputs": [
        {
          "internalType": "string",
          "name": "",
          "type": "string"
        }
      ],
      "stateMutability": "view",
      "type": "function"
    }
  ],
  "bytecode": "0x608060405266b1a2bc2ec500006008553480156200001c57600080fd5b5033604051806020016040528060008152506200003f816200010e60201b60201c565b50600073ffffffffffffffffffffffffffffffffffffffff168173ffffffffffffffffffffffffffffffffffffffff1603620000b55760006040517f1e4fbdf7000000000000000000000000000000000000000000000000000000008152600401620000ac91906200022e565b60405180910390fd5b620000c6816200012360201b60201c565b5033600960006101000a81548173ffffffffffffffffffffffffffffffffffffffff021916908373ffffffffffffffffffffffffffffffffffffffff160217905550620005ac565b80600290816200011f9190620004c5565b5050565b6000600360009054906101000a900473ffffffffffffffffffffffffffffffffffffffff16905081600360006101000a81548173ffffffffffffffffffffffffffffffffffffffff021916908373ffffffffffffffffffffffffffffffffffffffff1602179055508173ffffffffffffffffffffffffffffffffffffffff168173ffffffffffffffffffffffffffffffffffffffff167f8be0079c531659141344cd1fd0a4f28419497f9722a3daafe3b4186f6b6457e060405160405180910390a35050565b600073ffffffffffffffffffffffffffffffffffffffff82169050919050565b60006200021682620001e9565b9050919050565b620002288162000209565b82525050565b60006020820190506200024560008301846200021d565b92915050565b600081519050919050565b7f4e487b7100000000000000000000000000000000000000000000000000000000600052604160045260246000fd5b7f4e487b7100000000000000000000000000000000000000000000000000000000600052602260045260246000fd5b60006002820490506001821680620002cd57607f821691505b602082108103620002e357620002e262000285565b5b50919050565b60008190508160005260206000209050919050565b60006020601f8301049050919050565b600082821b905092915050565b6000600883026200034d7fffffffffffffffffffffffffffffffffffffffffffffffffffffffffffffffff826200030e565b6200035986836200030e565b95508019841693508086168417925050509392505050565b6000819050919050565b6000819050919050565b6000620003a6620003a06200039a8462000371565b6200037b565b62000371565b9050919050565b6000819050919050565b620003c28362000385565b620003da620003d182620003ad565b8484546200031b565b825550505050565b600090565b620003f1620003e2565b620003fe818484620003b7565b505050565b5b8181101562000426576200041a600082620003e7565b60018101905062000404565b5050565b601f82111562000475576200043f81620002e9565b6200044a84620002fe565b810160208510156200045a578190505b620004726200046985620002fe565b83018262000403565b50505b505050565b600082821c905092915050565b60006200049a600019846008026200047a565b1980831691505092915050565b6000620004b5838362000487565b9150826002028217905092915050565b620004d0826200024b565b67ffffffffffffffff811115620004ec57620004eb62000256565b5b620004f88254620002b4565b620005058282856200042a565b600060209050601f8311600181146200053d576000841562000528578287015190505b620005348582620004a7565b865550620005a4565b601f1984166200054d86620002e9565b60005b82811015620005775784890151825560018201915060208501945060208101905062000550565b8683101562000597578489015162000593601f89168262000487565b8355505b6001600288020188555050505b505050505050565b61410180620005bc6000396000f3fe6080604052600436106101345760003560e01c8063715018a6116100ab578063df8028421161006f578063df8028421461044f578063e985e9c51461046b578063eb2dbcf6146104a8578063f242432a146104e5578063f2fde38b1461050e578063f851a4401461053757610134565b8063715018a6146103755780637dc379fa1461038c5780638da5cb5b146103d0578063a22cb465146103fb578063cfbd900f1461042457610134565b80632eb2c2d6116100fd5780632eb2c2d61461024657806343ebf45a1461026f5780634e1273f4146102ac57806350b44712146102e95780635de496df1461033057806367dd74ca1461035957610134565b8062fdd58e1461013957806301ffc9a7146101765780630e89341c146101b357806321c63a47146101f05780632c69138a1461021b575b600080fd5b34801561014557600080fd5b50610160600480360381019061015b919061299f565b610562565b60405161016d91906129ee565b60405180910390f35b34801561018257600080fd5b5061019d60048036038101906101989190612a61565b6105bc565b6040516101aa9190612aa9565b60405180910390f35b3480156101bf57600080fd5b506101da60048036038101906101d59190612ac4565b61069e565b6040516101e79190612b81565b60405180910390f35b3480156101fc57600080fd5b50610205610732565b60405161021291906129ee565b60405180910390f35b34801561022757600080fd5b5061023061073c565b60405161023d91906129ee565b60405180910390f35b34801561025257600080fd5b5061026d60048036038101906102689190612da0565b610742565b005b34801561027b57600080fd5b5061029660048036038101906102919190612ac4565b6107ea565b6040516102a391906129ee565b60405180910390f35b3480156102b857600080fd5b506102d360048036038101906102ce9190612f32565b610802565b6040516102e09190613068565b60405180910390f35b3480156102f557600080fd5b50610310600480360381019061030b9190612ac4565b610911565b6040516103279b9a999897969594939291906130e7565b60405180910390f35b34801561033c57600080fd5b5061035760048036038101906103529190612ac4565b610c09565b005b610373600480360381019061036e9190612ac4565b610ed6565b005b34801561038157600080fd5b5061038a611095565b005b34801561039857600080fd5b506103b360048036038101906103ae9190612ac4565b6110a9565b6040516103c79897969594939291906131ae565b60405180910390f35b3480156103dc57600080fd5b506103e56114bf565b6040516103f29190613248565b60405180910390f35b34801561040757600080fd5b50610422600480360381019061041d919061328f565b6114e9565b005b34801561043057600080fd5b506104396114ff565b60405161044691906129ee565b60405180910390f35b610469600480360381019061046491906133c8565b611505565b005b34801561047757600080fd5b50610492600480360381019061048d91906134ee565b6118f1565b60405161049f9190612aa9565b60405180910390f35b3480156104b457600080fd5b506104cf60048036038101906104ca9190612ac4565b611985565b6040516104dc9190613248565b60405180910390f35b3480156104f157600080fd5b5061050c6004803603810190610507919061352e565b6119b8565b005b34801561051a57600080fd5b50610535600480360381019061053091906135c5565b611a60565b005b34801561054357600080fd5b5061054c611ae6565b6040516105599190613613565b60405180910390f35b600080600083815260200190815260200160002060008473ffffffffffffffffffffffffffffffffffffffff1673ffffffffffffffffffffffffffffffffffffffff16815260200190815260200160002054905092915050565b60007fd9b67a26000000000000000000000000000000000000000000000000000000007bffffffffffffffffffffffffffffffffffffffffffffffffffffffff1916827bffffffffffffffffffffffffffffffffffffffffffffffffffffffff1916148061068757507f0e89341c000000000000000000000000000000000000000000000000000000007bffffffffffffffffffffffffffffffffffffffffffffffffffffffff1916827bffffffffffffffffffffffffffffffffffffffffffffffffffffffff1916145b80610697575061069682611b0c565b5b9050919050565b6060600280546106ad9061365d565b80601f01602080910402602001604051908101604052809291908181526020018280546106d99061365d565b80156107265780601f106106fb57610100808354040283529160200191610726565b820191906000526020600020905b81548152906001019060200180831161070957829003601f168201915b50505050509050919050565b6000600754905090565b60085481565b600061074c611b76565b90508073ffffffffffffffffffffffffffffffffffffffff168673ffffffffffffffffffffffffffffffffffffffff1614158015610791575061078f86826118f1565b155b156107d55780866040517fe237d9220000000000000000000000000000000000000000000000000000000081526004016107cc92919061368e565b60405180910390fd5b6107e28686868686611b7e565b505050505050565b60066020528060005260406000206000915090505481565b6060815183511461084e57815183516040517f5b0599910000000000000000000000000000000000000000000000000000000081526004016108459291906136b7565b60405180910390fd5b6000835167ffffffffffffffff81111561086b5761086a612ba8565b5b6040519080825280602002602001820160405280156108995781602001602082028036833780820191505090505b50905060005b8451811015610906576108d66108be8287611c7690919063ffffffff16565b6108d18387611c8a90919063ffffffff16565b610562565b8282815181106108e9576108e86136e0565b5b602002602001018181525050806108ff9061373e565b905061089f565b508091505092915050565b60046020528060005260406000206000915090508060000180546109349061365d565b80601f01602080910402602001604051908101604052809291908181526020018280546109609061365d565b80156109ad5780601f10610982576101008083540402835291602001916109ad565b820191906000526020600020905b81548152906001019060200180831161099057829003601f168201915b5050505050908060010180546109c29061365d565b80601f01602080910402602001604051908101604052809291908181526020018280546109ee9061365d565b8015610a3b5780601f10610a1057610100808354040283529160200191610a3b565b820191906000526020600020905b815481529060010190602001808311610a1e57829003601f168201915b505050505090806002018054610a509061365d565b80601f0160208091040260200160405190810160405280929190818152602001828054610a7c9061365d565b8015610ac95780601f10610a9e57610100808354040283529160200191610ac9565b820191906000526020600020905b815481529060010190602001808311610aac57829003601f168201915b505050505090806003018054610ade9061365d565b80601f0160208091040260200160405190810160405280929190818152602001828054610b0a9061365d565b8015610b575780601f10610b2c57610100808354040283529160200191610b57565b820191906000526020600020905b815481529060010190602001808311610b3a57829003601f168201915b5050505050908060040160009054906101000a90046fffffffffffffffffffffffffffffffff16908060040160109054906101000a900467ffffffffffffffff16908060040160189054906101000a900467ffffffffffffffff16908060050154908060060160009054906101000a900473ffffffffffffffffffffffffffffffffffffffff16908060060160149054906101000a900460ff16908060060160159054906101000a900460ff1690508b565b3373ffffffffffffffffffffffffffffffffffffffff166005600083815260200190815260200160002060009054906101000a900473ffffffffffffffffffffffffffffffffffffffff1673ffffffffffffffffffffffffffffffffffffffff1614610caa576040517f08c379a0000000000000000000000000000000000000000000000000000000008152600401610ca1906137d2565b60405180910390fd5b6004600082815260200190815260200160002060060160159054906101000a900460ff1615610d0e576040517f08c379a0000000000000000000000000000000000000000000000000000000008152600401610d059061383e565b60405180910390fd5b60016004600083815260200190815260200160002060060160156101000a81548160ff02191690831515021790555060006006600083815260200190815260200160002054905060008111610d98576040517f08c379a0000000000000000000000000000000000000000000000000000000008152600401610d8f906138aa565b60405180910390fd5b60006004600084815260200190815260200160002060060160009054906101000a900473ffffffffffffffffffffffffffffffffffffffff16905060008173ffffffffffffffffffffffffffffffffffffffff1683604051610df9906138fb565b60006040518083038185875af1925050503d8060008114610e36576040519150601f19603f3d011682016040523d82523d6000602084013e610e3b565b606091505b5050905080610e7f576040517f08c379a0000000000000000000000000000000000000000000000000000000008152600401610e769061395c565b60405180910390fd5b60006006600086815260200190815260200160002081905550837f4c3f8ff3b3376dbd255cab935257c5c6f095b27b816f6f0b1ae35b828e6838a833604051610ec89190613248565b60405180910390a250505050565b60006004600083815260200190815260200160002090508060060160149054906101000a900460ff1615610f3f576040517f08c379a0000000000000000000000000000000000000000000000000000000008152600401610f36906139c8565b60405180910390fd5b8060040160009054906101000a90046fffffffffffffffffffffffffffffffff166fffffffffffffffffffffffffffffffff16341015610fb4576040517f08c379a0000000000000000000000000000000000000000000000000000000008152600401610fab90613a34565b60405180910390fd5b346006600084815260200190815260200160002081905550336005600084815260200190815260200160002060006101000a81548173ffffffffffffffffffffffffffffffffffffffff021916908373ffffffffffffffffffffffffffffffffffffffff16021790555060018160060160146101000a81548160ff0219169083151502179055506110573383600160405180602001604052806000815250611c9e565b817f913d09b391f64143215d9312fd7e8ecaa06001c646789c9d2109dc515bc34fad3334604051611089929190613a54565b60405180910390a25050565b61109d611d37565b6110a76000611dbe565b565b6060806060806000806000806000600460008b8152602001908152602001600020604051806101600160405290816000820180546110e69061365d565b80601f01602080910402602001604051908101604052809291908181526020018280546111129061365d565b801561115f5780601f106111345761010080835404028352916020019161115f565b820191906000526020600020905b81548152906001019060200180831161114257829003601f168201915b505050505081526020016001820180546111789061365d565b80601f01602080910402602001604051908101604052809291908181526020018280546111a49061365d565b80156111f15780601f106111c6576101008083540402835291602001916111f1565b820191906000526020600020905b8154815290600101906020018083116111d457829003601f168201915b5050505050815260200160028201805461120a9061365d565b80601f01602080910402602001604051908101604052809291908181526020018280546112369061365d565b80156112835780601f1061125857610100808354040283529160200191611283565b820191906000526020600020905b81548152906001019060200180831161126657829003601f168201915b5050505050815260200160038201805461129c9061365d565b80601f01602080910402602001604051908101604052809291908181526020018280546112c89061365d565b80156113155780601f106112ea57610100808354040283529160200191611315565b820191906000526020600020905b8154815290600101906020018083116112f857829003601f168201915b505050505081526020016004820160009054906101000a90046fffffffffffffffffffffffffffffffff166fffffffffffffffffffffffffffffffff166fffffffffffffffffffffffffffffffff1681526020016004820160109054906101000a900467ffffffffffffffff1667ffffffffffffffff1667ffffffffffffffff1681526020016004820160189054906101000a900467ffffffffffffffff1667ffffffffffffffff1667ffffffffffffffff168152602001600582015481526020016006820160009054906101000a900473ffffffffffffffffffffffffffffffffffffffff1673ffffffffffffffffffffffffffffffffffffffff1673ffffffffffffffffffffffffffffffffffffffff1681526020016006820160149054906101000a900460ff161515151581526020016006820160159054906101000a900460ff1615151515815250509050806000015181602001518260400151836060015184608001518560a00151866101200151876101400151836fffffffffffffffffffffffffffffffff1693509850985098509850985098509850985050919395975091939597565b6000600360009054906101000a900473ffffffffffffffffffffffffffffffffffffffff16905090565b6114fb6114f4611b76565b8383611e84565b5050565b60075481565b6008543414611549576040517f08c379a000000000000000000000000000000000000000000000000000000000815260040161154090613aef565b60405180910390fd5b428367ffffffffffffffff1611611595576040517f08c379a000000000000000000000000000000000000000000000000000000000815260040161158c90613b81565b60405180910390fd5b6000600960009054906101000a900473ffffffffffffffffffffffffffffffffffffffff1673ffffffffffffffffffffffffffffffffffffffff16346040516115dd906138fb565b60006040518083038185875af1925050503d806000811461161a576040519150601f19603f3d011682016040523d82523d6000602084013e61161f565b606091505b5050905080611663576040517f08c379a000000000000000000000000000000000000000000000000000000000815260040161165a90613bed565b60405180910390fd5b600760008154809291906116769061373e565b91905055506040518061016001604052808a8152602001898152602001888152602001878152602001866fffffffffffffffffffffffffffffffff1681526020018567ffffffffffffffff1681526020018467ffffffffffffffff1681526020018381526020013373ffffffffffffffffffffffffffffffffffffffff1681526020016000151581526020016000151581525060046000600754815260200190815260200160002060008201518160000190816117339190613db9565b5060208201518160010190816117499190613db9565b50604082015181600201908161175f9190613db9565b5060608201518160030190816117759190613db9565b5060808201518160040160006101000a8154816fffffffffffffffffffffffffffffffff02191690836fffffffffffffffffffffffffffffffff16021790555060a08201518160040160106101000a81548167ffffffffffffffff021916908367ffffffffffffffff16021790555060c08201518160040160186101000a81548167ffffffffffffffff021916908367ffffffffffffffff16021790555060e082015181600501556101008201518160060160006101000a81548173ffffffffffffffffffffffffffffffffffffffff021916908373ffffffffffffffffffffffffffffffffffffffff1602179055506101208201518160060160146101000a81548160ff0219169083151502179055506101408201518160060160156101000a81548160ff0219169083151502179055509050506007547f94cd72edf1b73d06e933c6f4b71d0cf3a3f020ec78925963cbf93ef6dbe6b22a8a886040516118de929190613e8b565b60405180910390a2505050505050505050565b6000600160008473ffffffffffffffffffffffffffffffffffffffff1673ffffffffffffffffffffffffffffffffffffffff16815260200190815260200160002060008373ffffffffffffffffffffffffffffffffffffffff1673ffffffffffffffffffffffffffffffffffffffff16815260200190815260200160002060009054906101000a900460ff16905092915050565b60056020528060005260406000206000915054906101000a900473ffffffffffffffffffffffffffffffffffffffff1681565b60006119c2611b76565b90508073ffffffffffffffffffffffffffffffffffffffff168673ffffffffffffffffffffffffffffffffffffffff1614158015611a075750611a0586826118f1565b155b15611a4b5780866040517fe237d922000000000000000000000000000000000000000000000000000000008152600401611a4292919061368e565b60405180910390fd5b611a588686868686611ff4565b505050505050565b611a68611d37565b600073ffffffffffffffffffffffffffffffffffffffff168173ffffffffffffffffffffffffffffffffffffffff1603611ada5760006040517f1e4fbdf7000000000000000000000000000000000000000000000000000000008152600401611ad19190613248565b60405180910390fd5b611ae381611dbe565b50565b600960009054906101000a900473ffffffffffffffffffffffffffffffffffffffff1681565b60007f01ffc9a7000000000000000000000000000000000000000000000000000000007bffffffffffffffffffffffffffffffffffffffffffffffffffffffff1916827bffffffffffffffffffffffffffffffffffffffffffffffffffffffff1916149050919050565b600033905090565b600073ffffffffffffffffffffffffffffffffffffffff168473ffffffffffffffffffffffffffffffffffffffff1603611bf05760006040517f57f447ce000000000000000000000000000000000000000000000000000000008152600401611be79190613248565b60405180910390fd5b600073ffffffffffffffffffffffffffffffffffffffff168573ffffffffffffffffffffffffffffffffffffffff1603611c625760006040517f01a83514000000000000000000000000000000000000000000000000000000008152600401611c599190613248565b60405180910390fd5b611c6f85858585856120ff565b5050505050565b600060208202602084010151905092915050565b600060208202602084010151905092915050565b600073ffffffffffffffffffffffffffffffffffffffff168473ffffffffffffffffffffffffffffffffffffffff1603611d105760006040517f57f447ce000000000000000000000000000000000000000000000000000000008152600401611d079190613248565b60405180910390fd5b600080611d1d85856121b1565b91509150611d2f6000878484876120ff565b505050505050565b611d3f611b76565b73ffffffffffffffffffffffffffffffffffffffff16611d5d6114bf565b73ffffffffffffffffffffffffffffffffffffffff1614611dbc57611d80611b76565b6040517f118cdaa7000000000000000000000000000000000000000000000000000000008152600401611db39190613248565b60405180910390fd5b565b6000600360009054906101000a900473ffffffffffffffffffffffffffffffffffffffff16905081600360006101000a81548173ffffffffffffffffffffffffffffffffffffffff021916908373ffffffffffffffffffffffffffffffffffffffff1602179055508173ffffffffffffffffffffffffffffffffffffffff168173ffffffffffffffffffffffffffffffffffffffff167f8be0079c531659141344cd1fd0a4f28419497f9722a3daafe3b4186f6b6457e060405160405180910390a35050565b600073ffffffffffffffffffffffffffffffffffffffff168273ffffffffffffffffffffffffffffffffffffffff1603611ef65760006040517fced3e100000000000000000000000000000000000000000000000000000000008152600401611eed9190613248565b60405180910390fd5b80600160008573ffffffffffffffffffffffffffffffffffffffff1673ffffffffffffffffffffffffffffffffffffffff16815260200190815260200160002060008473ffffffffffffffffffffffffffffffffffffffff1673ffffffffffffffffffffffffffffffffffffffff16815260200190815260200160002060006101000a81548160ff0219169083151502179055508173ffffffffffffffffffffffffffffffffffffffff168373ffffffffffffffffffffffffffffffffffffffff167f17307eab39ab6107e8899845ad3d59bd9653f200f220920489ca2b5937696c3183604051611fe79190612aa9565b60405180910390a3505050565b600073ffffffffffffffffffffffffffffffffffffffff168473ffffffffffffffffffffffffffffffffffffffff16036120665760006040517f57f447ce00000000000000000000000000000000000000000000000000000000815260040161205d9190613248565b60405180910390fd5b600073ffffffffffffffffffffffffffffffffffffffff168573ffffffffffffffffffffffffffffffffffffffff16036120d85760006040517f01a835140000000000000000000000000000000000000000000000000000000081526004016120cf9190613248565b60405180910390fd5b6000806120e585856121b1565b915091506120f687878484876120ff565b50505050505050565b61210b858585856121e1565b600073ffffffffffffffffffffffffffffffffffffffff168473ffffffffffffffffffffffffffffffffffffffff16146121aa576000612149611b76565b9050600184510361219957600061216a600086611c8a90919063ffffffff16565b90506000612182600086611c8a90919063ffffffff16565b905061219283898985858961258f565b50506121a8565b6121a7818787878787612743565b5b505b5050505050565b60608060405191506001825283602083015260408201905060018152826020820152604081016040529250929050565b805182511461222b57815181516040517f5b0599910000000000000000000000000000000000000000000000000000000081526004016122229291906136b7565b60405180910390fd5b6000612235611b76565b905060005b835181101561244a5760006122588286611c8a90919063ffffffff16565b9050600061226f8386611c8a90919063ffffffff16565b9050600073ffffffffffffffffffffffffffffffffffffffff168873ffffffffffffffffffffffffffffffffffffffff161461239c57600080600084815260200190815260200160002060008a73ffffffffffffffffffffffffffffffffffffffff1673ffffffffffffffffffffffffffffffffffffffff1681526020019081526020016000205490508181101561234457888183856040517f03dee4c500000000000000000000000000000000000000000000000000000000815260040161233b9493929190613ec2565b60405180910390fd5b81810360008085815260200190815260200160002060008b73ffffffffffffffffffffffffffffffffffffffff1673ffffffffffffffffffffffffffffffffffffffff16815260200190815260200160002081905550505b600073ffffffffffffffffffffffffffffffffffffffff168773ffffffffffffffffffffffffffffffffffffffff1614612437578060008084815260200190815260200160002060008973ffffffffffffffffffffffffffffffffffffffff1673ffffffffffffffffffffffffffffffffffffffff168152602001908152602001600020600082825461242f9190613f07565b925050819055505b5050806124439061373e565b905061223a565b50600183510361250957600061246a600085611c8a90919063ffffffff16565b90506000612482600085611c8a90919063ffffffff16565b90508573ffffffffffffffffffffffffffffffffffffffff168773ffffffffffffffffffffffffffffffffffffffff168473ffffffffffffffffffffffffffffffffffffffff167fc3d58168c5ae7397731d063d5bbf3d657854427343f4c083240f7aacaa2d0f6285856040516124fa9291906136b7565b60405180910390a45050612588565b8373ffffffffffffffffffffffffffffffffffffffff168573ffffffffffffffffffffffffffffffffffffffff168273ffffffffffffffffffffffffffffffffffffffff167f4a39dc06d4c0dbc64b70af90fd698a233a518aa5d07e595d983b8c0526c8f7fb868660405161257f929190613f3b565b60405180910390a45b5050505050565b60008473ffffffffffffffffffffffffffffffffffffffff163b111561273b578373ffffffffffffffffffffffffffffffffffffffff1663f23a6e6187878686866040518663ffffffff1660e01b81526004016125f0959493929190613fc7565b6020604051808303816000875af192505050801561262c57506040513d601f19601f820116820180604052508101906126299190614036565b60015b6126b0573d806000811461265c576040519150601f19603f3d011682016040523d82523d6000602084013e612661565b606091505b5060008151036126a857846040517f57f447ce00000000000000000000000000000000000000000000000000000000815260040161269f9190613248565b60405180910390fd5b805181602001fd5b63f23a6e6160e01b7bffffffffffffffffffffffffffffffffffffffffffffffffffffffff1916817bffffffffffffffffffffffffffffffffffffffffffffffffffffffff19161461273957846040517f57f447ce0000000000000000000000000000000000000000000000000000000081526004016127309190613248565b60405180910390fd5b505b505050505050565b60008473ffffffffffffffffffffffffffffffffffffffff163b11156128ef578373ffffffffffffffffffffffffffffffffffffffff1663bc197c8187878686866040518663ffffffff1660e01b81526004016127a4959493929190614063565b6020604051808303816000875af19250505080156127e057506040513d601f19601f820116820180604052508101906127dd9190614036565b60015b612864573d8060008114612810576040519150601f19603f3d011682016040523d82523d6000602084013e612815565b606091505b50600081510361285c57846040517f57f447ce0000000000000000000000000000000000000000000000000000000081526004016128539190613248565b60405180910390fd5b805181602001fd5b63bc197c8160e01b7bffffffffffffffffffffffffffffffffffffffffffffffffffffffff1916817bffffffffffffffffffffffffffffffffffffffffffffffffffffffff1916146128ed57846040517f57f447ce0000000000000000000000000000000000000000000000000000000081526004016128e49190613248565b60405180910390fd5b505b505050505050565b6000604051905090565b600080fd5b600080fd5b600073ffffffffffffffffffffffffffffffffffffffff82169050919050565b60006129368261290b565b9050919050565b6129468161292b565b811461295157600080fd5b50565b6000813590506129638161293d565b92915050565b6000819050919050565b61297c81612969565b811461298757600080fd5b50565b60008135905061299981612973565b92915050565b600080604083850312156129b6576129b5612901565b5b60006129c485828601612954565b92505060206129d58582860161298a565b9150509250929050565b6129e881612969565b82525050565b6000602082019050612a0360008301846129df565b92915050565b60007fffffffff0000000000000000000000000000000000000000000000000000000082169050919050565b612a3e81612a09565b8114612a4957600080fd5b50565b600081359050612a5b81612a35565b92915050565b600060208284031215612a7757612a76612901565b5b6000612a8584828501612a4c565b91505092915050565b60008115159050919050565b612aa381612a8e565b82525050565b6000602082019050612abe6000830184612a9a565b92915050565b600060208284031215612ada57612ad9612901565b5b6000612ae88482850161298a565b91505092915050565b600081519050919050565b600082825260208201905092915050565b60005b83811015612b2b578082015181840152602081019050612b10565b60008484015250505050565b6000601f19601f8301169050919050565b6000612b5382612af1565b612b5d8185612afc565b9350612b6d818560208601612b0d565b612b7681612b37565b840191505092915050565b60006020820190508181036000830152612b9b8184612b48565b905092915050565b600080fd5b7f4e487b7100000000000000000000000000000000000000000000000000000000600052604160045260246000fd5b612be082612b37565b810181811067ffffffffffffffff82111715612bff57612bfe612ba8565b5b80604052505050565b6000612c126128f7565b9050612c1e8282612bd7565b919050565b600067ffffffffffffffff821115612c3e57612c3d612ba8565b5b602082029050602081019050919050565b600080fd5b6000612c67612c6284612c23565b612c08565b90508083825260208201905060208402830185811115612c8a57612c89612c4f565b5b835b81811015612cb35780612c9f888261298a565b845260208401935050602081019050612c8c565b5050509392505050565b600082601f830112612cd257612cd1612ba3565b5b8135612ce2848260208601612c54565b91505092915050565b600080fd5b600067ffffffffffffffff821115612d0b57612d0a612ba8565b5b612d1482612b37565b9050602081019050919050565b82818337600083830152505050565b6000612d43612d3e84612cf0565b612c08565b905082815260208101848484011115612d5f57612d5e612ceb565b5b612d6a848285612d21565b509392505050565b600082601f830112612d8757612d86612ba3565b5b8135612d97848260208601612d30565b91505092915050565b600080600080600060a08688031215612dbc57612dbb612901565b5b6000612dca88828901612954565b9550506020612ddb88828901612954565b945050604086013567ffffffffffffffff811115612dfc57612dfb612906565b5b612e0888828901612cbd565b935050606086013567ffffffffffffffff811115612e2957612e28612906565b5b612e3588828901612cbd565b925050608086013567ffffffffffffffff811115612e5657612e55612906565b5b612e6288828901612d72565b9150509295509295909350565b600067ffffffffffffffff821115612e8a57612e89612ba8565b5b602082029050602081019050919050565b6000612eae612ea984612e6f565b612c08565b90508083825260208201905060208402830185811115612ed157612ed0612c4f565b5b835b81811015612efa5780612ee68882612954565b845260208401935050602081019050612ed3565b5050509392505050565b600082601f830112612f1957612f18612ba3565b5b8135612f29848260208601612e9b565b91505092915050565b60008060408385031215612f4957612f48612901565b5b600083013567ffffffffffffffff811115612f6757612f66612906565b5b612f7385828601612f04565b925050602083013567ffffffffffffffff811115612f9457612f93612906565b5b612fa085828601612cbd565b9150509250929050565b600081519050919050565b600082825260208201905092915050565b6000819050602082019050919050565b612fdf81612969565b82525050565b6000612ff18383612fd6565b60208301905092915050565b6000602082019050919050565b600061301582612faa565b61301f8185612fb5565b935061302a83612fc6565b8060005b8381101561305b5781516130428882612fe5565b975061304d83612ffd565b92505060018101905061302e565b5085935050505092915050565b60006020820190508181036000830152613082818461300a565b905092915050565b60006fffffffffffffffffffffffffffffffff82169050919050565b6130af8161308a565b82525050565b600067ffffffffffffffff82169050919050565b6130d2816130b5565b82525050565b6130e18161292b565b82525050565b6000610160820190508181036000830152613102818e612b48565b90508181036020830152613116818d612b48565b9050818103604083015261312a818c612b48565b9050818103606083015261313e818b612b48565b905061314d608083018a6130a6565b61315a60a08301896130c9565b61316760c08301886130c9565b61317460e08301876129df565b6131826101008301866130d8565b613190610120830185612a9a565b61319e610140830184612a9a565b9c9b505050505050505050505050565b60006101008201905081810360008301526131c9818b612b48565b905081810360208301526131dd818a612b48565b905081810360408301526131f18189612b48565b905081810360608301526132058188612b48565b905061321460808301876129df565b61322160a08301866130c9565b61322e60c0830185612a9a565b61323b60e0830184612a9a565b9998505050505050505050565b600060208201905061325d60008301846130d8565b92915050565b61326c81612a8e565b811461327757600080fd5b50565b60008135905061328981613263565b92915050565b600080604083850312156132a6576132a5612901565b5b60006132b485828601612954565b92505060206132c58582860161327a565b9150509250929050565b600067ffffffffffffffff8211156132ea576132e9612ba8565b5b6132f382612b37565b9050602081019050919050565b600061331361330e846132cf565b612c08565b90508281526020810184848401111561332f5761332e612ceb565b5b61333a848285612d21565b509392505050565b600082601f83011261335757613356612ba3565b5b8135613367848260208601613300565b91505092915050565b6133798161308a565b811461338457600080fd5b50565b60008135905061339681613370565b92915050565b6133a5816130b5565b81146133b057600080fd5b50565b6000813590506133c28161339c565b92915050565b600080600080600080600080610100898b0312156133e9576133e8612901565b5b600089013567ffffffffffffffff81111561340757613406612906565b5b6134138b828c01613342565b985050602089013567ffffffffffffffff81111561343457613433612906565b5b6134408b828c01613342565b975050604089013567ffffffffffffffff81111561346157613460612906565b5b61346d8b828c01613342565b965050606089013567ffffffffffffffff81111561348e5761348d612906565b5b61349a8b828c01613342565b95505060806134ab8b828c01613387565b94505060a06134bc8b828c016133b3565b93505060c06134cd8b828c016133b3565b92505060e06134de8b828c0161298a565b9150509295985092959890939650565b6000806040838503121561350557613504612901565b5b600061351385828601612954565b925050602061352485828601612954565b9150509250929050565b600080600080600060a0868803121561354a57613549612901565b5b600061355888828901612954565b955050602061356988828901612954565b945050604061357a8882890161298a565b935050606061358b8882890161298a565b925050608086013567ffffffffffffffff8111156135ac576135ab612906565b5b6135b888828901612d72565b9150509295509295909350565b6000602082840312156135db576135da612901565b5b60006135e984828501612954565b91505092915050565b60006135fd8261290b565b9050919050565b61360d816135f2565b82525050565b60006020820190506136286000830184613604565b92915050565b7f4e487b7100000000000000000000000000000000000000000000000000000000600052602260045260246000fd5b6000600282049050600182168061367557607f821691505b6020821081036136885761368761362e565b5b50919050565b60006040820190506136a360008301856130d8565b6136b060208301846130d8565b9392505050565b60006040820190506136cc60008301856129df565b6136d960208301846129df565b9392505050565b7f4e487b7100000000000000000000000000000000000000000000000000000000600052603260045260246000fd5b7f4e487b7100000000000000000000000000000000000000000000000000000000600052601160045260246000fd5b600061374982612969565b91507fffffffffffffffffffffffffffffffffffffffffffffffffffffffffffffffff820361377b5761377a61370f565b5b600182019050919050565b7f596f7520646f206e6f74206f776e2074686973207469636b6574000000000000600082015250565b60006137bc601a83612afc565b91506137c782613786565b602082019050919050565b600060208201905081810360008301526137eb816137af565b9050919050565b7f5469636b657420616c726561647920646f776e6c6f6164656400000000000000600082015250565b6000613828601983612afc565b9150613833826137f2565b602082019050919050565b600060208201905081810360008301526138578161381b565b9050919050565b7f4e6f2066756e647320696e20657363726f770000000000000000000000000000600082015250565b6000613894601283612afc565b915061389f8261385e565b602082019050919050565b600060208201905081810360008301526138c381613887565b9050919050565b600081905092915050565b50565b60006138e56000836138ca565b91506138f0826138d5565b600082019050919050565b6000613906826138d8565b9150819050919050565b7f4661696c656420746f2073656e6420457468657220746f2073656c6c65720000600082015250565b6000613946601e83612afc565b915061395182613910565b602082019050919050565b6000602082019050818103600083015261397581613939565b9050919050565b7f5469636b657420616c726561647920736f6c6400000000000000000000000000600082015250565b60006139b2601383612afc565b91506139bd8261397c565b602082019050919050565b600060208201905081810360008301526139e1816139a5565b9050919050565b7f496e73756666696369656e742045544820746f20627579207469636b65740000600082015250565b6000613a1e601e83612afc565b9150613a29826139e8565b602082019050919050565b60006020820190508181036000830152613a4d81613a11565b9050919050565b6000604082019050613a6960008301856130d8565b613a7660208301846129df565b9392505050565b7f5061796d656e74206f6620302e30352045544820726571756972656420746f2060008201527f637265617465207469636b657400000000000000000000000000000000000000602082015250565b6000613ad9602d83612afc565b9150613ae482613a7d565b604082019050919050565b60006020820190508181036000830152613b0881613acc565b9050919050565b7f4578706972792064617465206d75737420626520696e2074686520667574757260008201527f6500000000000000000000000000000000000000000000000000000000000000602082015250565b6000613b6b602183612afc565b9150613b7682613b0f565b604082019050919050565b60006020820190508181036000830152613b9a81613b5e565b9050919050565b7f4661696c656420746f2073656e6420457468657220746f2061646d696e000000600082015250565b6000613bd7601d83612afc565b9150613be282613ba1565b602082019050919050565b60006020820190508181036000830152613c0681613bca565b9050919050565b60008190508160005260206000209050919050565b60006020601f8301049050919050565b600082821b905092915050565b600060088302613c6f7fffffffffffffffffffffffffffffffffffffffffffffffffffffffffffffffff82613c32565b613c798683613c32565b95508019841693508086168417925050509392505050565b6000819050919050565b6000613cb6613cb1613cac84612969565b613c91565b612969565b9050919050565b6000819050919050565b613cd083613c9b565b613ce4613cdc82613cbd565b848454613c3f565b825550505050565b600090565b613cf9613cec565b613d04818484613cc7565b505050565b5b81811015613d2857613d1d600082613cf1565b600181019050613d0a565b5050565b601f821115613d6d57613d3e81613c0d565b613d4784613c22565b81016020851015613d56578190505b613d6a613d6285613c22565b830182613d09565b50505b505050565b600082821c905092915050565b6000613d9060001984600802613d72565b1980831691505092915050565b6000613da98383613d7f565b9150826002028217905092915050565b613dc282612af1565b67ffffffffffffffff811115613ddb57613dda612ba8565b5b613de5825461365d565b613df0828285613d2c565b600060209050601f831160018114613e235760008415613e11578287015190505b613e1b8582613d9d565b865550613e83565b601f198416613e3186613c0d565b60005b82811015613e5957848901518255600182019150602085019450602081019050613e34565b86831015613e765784890151613e72601f891682613d7f565b8355505b6001600288020188555050505b505050505050565b60006040820190508181036000830152613ea58185612b48565b90508181036020830152613eb98184612b48565b90509392505050565b6000608082019050613ed760008301876130d8565b613ee460208301866129df565b613ef160408301856129df565b613efe60608301846129df565b95945050505050565b6000613f1282612969565b9150613f1d83612969565b9250828201905080821115613f3557613f3461370f565b5b92915050565b60006040820190508181036000830152613f55818561300a565b90508181036020830152613f69818461300a565b90509392505050565b600081519050919050565b600082825260208201905092915050565b6000613f9982613f72565b613fa38185613f7d565b9350613fb3818560208601612b0d565b613fbc81612b37565b840191505092915050565b600060a082019050613fdc60008301886130d8565b613fe960208301876130d8565b613ff660408301866129df565b61400360608301856129df565b81810360808301526140158184613f8e565b90509695505050505050565b60008151905061403081612a35565b92915050565b60006020828403121561404c5761404b612901565b5b600061405a84828501614021565b91505092915050565b600060a08201905061407860008301886130d8565b61408560208301876130d8565b8181036040830152614097818661300a565b905081810360608301526140ab818561300a565b905081810360808301526140bf8184613f8e565b9050969550505050505056fea2646970667358221220bdee4c9883ec20d6ec79cb411923c6e53c64c08bf50ebc89eca3b9c57088a6ae64736f6c63430008140033",
  "linkReferences": {},
  "deployedLinkReferences": {}
}